:020000040000FA
:08000000803102288731FD2F39
:100F72007230210099000F118E1523008E11F1019C
:100F8200F10AF301F30AF40122000F1100302000EC
:100F92008E190130F2007103031DD02FD12FEB2FD8
:100FA2007308031DD52FD62FEB2F7208031DDA2FDE
:100FB200DB2FEB2F74080319DF2FE12F0130E22F13
:100FC2000030F0007008F400740C2200031C0F11B2
:100FD20003180F157308F0007008F1007208F00092
:100FE2007008F3008230F000DE30890BF62FF00B30
:100FF200F62FC72F8031022820008731B92F3234D3
:021002000034B8
:020000040001F9
:02000E00E73FCA
:00000001FF
